:020000040800F2
:10000000003000209D0100088101000883010008E4
:1000100000000000000000000000000000000000E0
:100020000000000000000000000000008501000842
:10003000000000000000000087010008890100089E
:10004000ED01000800000000ED010008ED010008CE
:10005000ED010008ED010008ED010008ED010008C8
:1000600000000000ED010008ED010008ED010008AE
:10007000ED010008ED010008ED010008000000009E
:10008000ED0100080000000000000000ED01000884
:1000900000000000ED010008ED010008ED0100087E
:1000A00000000000ED010008000000008B010008C6
:1000B000ED0100080000000000000000000000004A
:1000C00010B5064C2378002B07D1054B002B02D02E
:1000D000044800E000BF0123237010BD2C04002061
:1000E0000000000090030008044B10B5002B03D063
:1000F0000349044800E000BF10BDC04600000000F6
:10010000300400209003000810B586B0184B5A6BDD
:1001100001210A435A63D96B802292020A43DA63AF
:10012000D96B802252050A43DA63A023DB05012242
:1001300052421A600F4A1A6000221A628822520143
:100140001A6201AB0C4A13CA13C3190013680B607F
:1001500013790B71094800F05CF8002404E00749AA
:1001600001A800F06CF80134022CF8DDFEE7C0466F
:1001700000100240AFFFFFEBA8030008004400405E
:10018000FEE7FEE77047704770477047024B8022DA
:1001900012059A607047C04600ED00E00D488546A4
:1001A000FFF7F4FF002103E00B4B5B584350043191
:1001B0000A480B4B42189A42F6D30A4A02E000233F
:1001C00013600432084B9A42F9D300F03DF8FFF770
:1001D0009BFFFEE700300020CC0300080000002059
:1001E0002C0400202C0400204C040020FEE7CB69E6
:1001F0001B06FCD58862CB69704770B504000D0002
:1002000003E02900FFF7F3FF013420780028F8D13C
:1002100070BD0023036043606833C360836820229D
:10022000934383608368183A934383608368063AF4
:100230009343836003682B3213430360704710B508
:10024000FFF7DBFF10BD000070B50C4D0C4E761BA8
:10025000B61005D0002408CD01349847A642FAD143
:1002600000F096F8074D084E761BB61005D0002416
:1002700008CD01349847A642FAD170BDC0030008EA
:10028000C0030008C0030008C8030008034B10B5F2
:10029000002B02D0024800F005F810BD000000005D
:1002A000B502000810B5010000230022002000F074
:1002B00019F810BD70B5074D074C641BA41005D08C
:1002C000013CA300EB589847002CF9D100F066F8E8
:1002D00070BDC046C8030008CC0300087047C04684
:1002E0007047C046F0B5D6464F464646C0B5264F85
:1002F00082B006003868924698468946FFF7EEFFBE
:10030000224B1B680193A423019A5B00D558002D52
:100310002ED06C681F2C30DC002E0FD1631C6B605C
:100320004B460234A40038686351FFF7D9FF002020
:1003300002B0E0BCBA46B146A846F0BD882251469C
:100340002800A300EB189950873AA2408930FF306B
:100350000168114301608421404649005850022E33
:10036000DCD12B008D33FF3319680A431A60D5E7BF
:1003700015004D35FF35D550CBE73868FFF7B0FF96
:1003800001204042D4E7C04628040020BC030008F6
:10039000F8B5C046F8BC08BC9E467047F8B5C046E4
:0803A000F8BC08BC9E46704742
:1003A8007A78787A7A78787A787A787A787A313244
:0803B80000000000000000201D
:0803C0008D020008E9000008AD
:0403C800C100000868
:1003CC0000000000EC02002054030020BC030020BD
:1003DC000000000000000000000000000000000011
:1003EC000000000000000000000000000000000001
:1003FC0000000000000000000000000000000000F1
:10040C0000000000000000000000000000000000E0
:10041C0000000000000000000000000000000000D0
:10042C0000000000000000000000000000000000C0
:10043C0000000000000000000000000000000000B0
:10044C0000000000000000000000000000000000A0
:10045C000000000000000000000000000000000090
:10046C00000000000000000001000000000000007F
:10047C000E33CDAB34126DE6ECDE05000B00000044
:10048C000000000000000000000000000000000060
:10049C000000000000000000000000000000000050
:1004AC000000000000000000000000000000000040
:1004BC000000000000000000000000000000000030
:0C07EC0000000000000000004804002095
:040000050800019D51
:00000001FF
